{
  "_format": "hh-sol-artifact-1",
  "contractName": "KycSystem",
  "sourceName": "contracts/KycSystem.sol",
  "abi": [
    {
      "inputs": [],
      "stateMutability": "nonpayable",
      "type": "constructor"
    },
    {
      "inputs": [
        {
          "internalType": "bytes32",
          "name": "_name",
          "type": "bytes32"
        },
        {
          "internalType": "address",
          "name": "_ethAddress",
          "type": "address"
        },
        {
          "internalType": "bytes32",
          "name": "_regNumber",
          "type": "bytes32"
        }
      ],
      "name": "addBank",
      "outputs": [],
      "stateMutability": "nonpayable",
      "type": "function"
    },
    {
      "inputs": [
        {
          "internalType": "bytes32",
          "name": "_name",
          "type": "bytes32"
        },
        {
          "internalType": "bytes32",
          "name": "_data",
          "type": "bytes32"
        }
      ],
      "name": "addCustomer",
      "outputs": [],
      "stateMutability": "nonpayable",
      "type": "function"
    },
    {
      "inputs": [
        {
          "internalType": "bytes32",
          "name": "_cUsername",
          "type": "bytes32"
        },
        {
          "internalType": "bytes32",
          "name": "_customerData",
          "type": "bytes32"
        }
      ],
      "name": "addKycRequest",
      "outputs": [],
      "stateMutability": "nonpayable",
      "type": "function"
    },
    {
      "inputs": [
        {
          "internalType": "bytes32",
          "name": "_cUsername",
          "type": "bytes32"
        }
      ],
      "name": "downVoteCustomer",
      "outputs": [],
      "stateMutability": "nonpayable",
      "type": "function"
    },
    {
      "inputs": [
        {
          "internalType": "address",
          "name": "_bankAddr",
          "type": "address"
        }
      ],
      "name": "getBankComplaints",
      "outputs": [
        {
          "internalType": "uint256",
          "name": "",
          "type": "uint256"
        }
      ],
      "stateMutability": "view",
      "type": "function"
    },
    {
      "inputs": [
        {
          "internalType": "address",
          "name": "_bankAddr",
          "type": "address"
        },
        {
          "internalType": "bool",
          "name": "_allowed",
          "type": "bool"
        }
      ],
      "name": "modifyBankIsAllowedToVote",
      "outputs": [],
      "stateMutability": "nonpayable",
      "type": "function"
    },
    {
      "inputs": [
        {
          "internalType": "bytes32",
          "name": "_cUsername",
          "type": "bytes32"
        },
        {
          "internalType": "bytes32",
          "name": "_data",
          "type": "bytes32"
        }
      ],
      "name": "modifyCustomer",
      "outputs": [
        {
          "internalType": "bool",
          "name": "success",
          "type": "bool"
        }
      ],
      "stateMutability": "nonpayable",
      "type": "function"
    },
    {
      "inputs": [
        {
          "internalType": "address",
          "name": "_bankAddr",
          "type": "address"
        }
      ],
      "name": "removeBank",
      "outputs": [],
      "stateMutability": "nonpayable",
      "type": "function"
    },
    {
      "inputs": [
        {
          "internalType": "bytes32",
          "name": "_cUsername",
          "type": "bytes32"
        }
      ],
      "name": "removeKycRequest",
      "outputs": [],
      "stateMutability": "nonpayable",
      "type": "function"
    },
    {
      "inputs": [
        {
          "internalType": "address",
          "name": "_bankAddr",
          "type": "address"
        }
      ],
      "name": "reportBank",
      "outputs": [],
      "stateMutability": "nonpayable",
      "type": "function"
    },
    {
      "inputs": [
        {
          "internalType": "bytes32",
          "name": "_cUsername",
          "type": "bytes32"
        }
      ],
      "name": "upVoteCustomer",
      "outputs": [],
      "stateMutability": "nonpayable",
      "type": "function"
    },
    {
      "inputs": [
        {
          "internalType": "address",
          "name": "_bankAddr",
          "type": "address"
        }
      ],
      "name": "viewBankDetails",
      "outputs": [
        {
          "components": [
            {
              "internalType": "bytes32",
              "name": "name",
              "type": "bytes32"
            },
            {
              "internalType": "address",
              "name": "ethAddress",
              "type": "address"
            },
            {
              "internalType": "uint256",
              "name": "complaintReported",
              "type": "uint256"
            },
            {
              "internalType": "uint256",
              "name": "kycCount",
              "type": "uint256"
            },
            {
              "internalType": "bool",
              "name": "isAllowedToVote",
              "type": "bool"
            },
            {
              "internalType": "bytes32",
              "name": "regNumber",
              "type": "bytes32"
            }
          ],
          "internalType": "struct Bank",
          "name": "bank",
          "type": "tuple"
        }
      ],
      "stateMutability": "view",
      "type": "function"
    },
    {
      "inputs": [
        {
          "internalType": "bytes32",
          "name": "_cUsername",
          "type": "bytes32"
        }
      ],
      "name": "viewCustomer",
      "outputs": [
        {
          "components": [
            {
              "internalType": "bytes32",
              "name": "username",
              "type": "bytes32"
            },
            {
              "internalType": "bytes32",
              "name": "data",
              "type": "bytes32"
            },
            {
              "internalType": "bool",
              "name": "kycStatus",
              "type": "bool"
            },
            {
              "internalType": "uint256",
              "name": "downVotes",
              "type": "uint256"
            },
            {
              "internalType": "uint256",
              "name": "upVotes",
              "type": "uint256"
            },
            {
              "internalType": "address",
              "name": "bank",
              "type": "address"
            }
          ],
          "internalType": "struct Customer",
          "name": "customer",
          "type": "tuple"
        }
      ],
      "stateMutability": "view",
      "type": "function"
    }
  ],
  "bytecode": "0x60a060405234801561001057600080fd5b503373ffffffffffffffffffffffffffffffffffffffff1660808173ffffffffffffffffffffffffffffffffffffffff1681525050600060048190555060805161293c610076600039600081816102920152818161102e015261131a015261293c6000f3fe608060405234801561001057600080fd5b50600436106100cf5760003560e01c806388cc8d8d1161008c578063a5a4980011610066578063a5a49800146101f8578063b8af51da14610214578063c9091acc14610244578063fe810d2e14610260576100cf565b806388cc8d8d146101905780639649650c146101c0578063a5a3d5c8146101dc576100cf565b806306aecb8c146100d4578063130d70cd146100f05780632287e2151461010c5780635cc4a477146101285780635ec2a7f2146101445780637c5f5ffd14610174575b600080fd5b6100ee60048036038101906100e99190611f3a565b610290565b005b61010a60048036038101906101059190611f8d565b61053a565b005b61012660048036038101906101219190611f8d565b610934565b005b610142600480360381019061013d9190611fba565b610d2e565b005b61015e60048036038101906101599190611ffa565b610f59565b60405161016b9190612040565b60405180910390f35b61018e60048036038101906101899190612093565b61102c565b005b6101aa60048036038101906101a59190611ffa565b61119f565b6040516101b7919061218a565b60405180910390f35b6101da60048036038101906101d59190611ffa565b611318565b005b6101f660048036038101906101f19190611f8d565b611537565b005b610212600480360381019061020d9190611ffa565b6116d7565b005b61022e60048036038101906102299190611fba565b6117c0565b60405161023b91906121b4565b60405180910390f35b61025e60048036038101906102599190611fba565b611907565b005b61027a60048036038101906102759190611f8d565b611add565b604051610287919061224a565b60405180910390f35b7f000000000000000000000000000000000000000000000000000000000000000073ffffffffffffffffffffffffffffffffffffffff163373ffffffffffffffffffffffffffffffffffffffff161461031e576040517f08c379a0000000000000000000000000000000000000000000000000000000008152600401610315906122c2565b60405180910390fd5b6000801b6000808473ffffffffffffffffffffffffffffffffffffffff1673ffffffffffffffffffffffffffffffffffffffff16815260200190815260200160002060050154146103a4576040517f08c379a000000000000000000000000000000000000000000000000000000000815260040161039b9061232e565b60405180910390fd5b6040518060c001604052808481526020018373ffffffffffffffffffffffffffffffffffffffff1681526020016000815260200160008152602001600115158152602001828152506000808473ffffffffffffffffffffffffffffffffffffffff1673ffffffffffffffffffffffffffffffffffffffff1681526020019081526020016000206000820151816000015560208201518160010160006101000a81548173ffffffffffffffffffffffffffffffffffffffff021916908373ffffffffffffffffffffffffffffffffffffffff160217905550604082015181600201556060820151816003015560808201518160040160006101000a81548160ff02191690831515021790555060a082015181600501559050506005829080600181540180825580915050600190039060005260206000200160009091909190916101000a81548173ffffffffffffffffffffffffffffffffffffffff021916908373ffffffffffffffffffffffffffffffffffffffff16021790555060046000815461052e9061237d565b91905081905550505050565b338160008060008473ffffffffffffffffffffffffffffffffffffffff1673ffffffffffffffffffffffffffffffffffffffff1681526020019081526020016000206040518060c0016040529081600082015481526020016001820160009054906101000a900473ffffffffffffffffffffffffffffffffffffffff1673ffffffffffffffffffffffffffffffffffffffff1673ffffffffffffffffffffffffffffffffffffffff16815260200160028201548152602001600382015481526020016004820160009054906101000a900460ff1615151515815260200160058201548152505090506000801b8160a001510361066b576040517f08c379a000000000000000000000000000000000000000000000000000000000815260040161066290612411565b60405180910390fd5b80608001516106af576040517f08c379a00000000000000000000000000000000000000000000000000000000081526004016106a69061247d565b60405180910390fd5b600015156003600084815260200190815260200160002060008573ffffffffffffffffffffffffffffffffffffffff1673ffffffffffffffffffffffffffffffffffffffff16815260200190815260200160002060009054906101000a900460ff16151514610753576040517f08c379a000000000000000000000000000000000000000000000000000000000815260040161074a906124e9565b60405180910390fd5b836000801b6001600083815260200190815260200160002060000154036107af576040517f08c379a00000000000000000000000000000000000000000000000000000000081526004016107a690612555565b60405180910390fd5b846107b981611c00565b6107f8576040517f08c379a00000000000000000000000000000000000000000000000000000000081526004016107ef906125c1565b60405180910390fd5b60006001600088815260200190815260200160002090503373ffffffffffffffffffffffffffffffffffffffff168160050160009054906101000a900473ffffffffffffffffffffffffffffffffffffffff1673ffffffffffffffffffffffffffffffffffffffff16036108a1576040517f08c379a000000000000000000000000000000000000000000000000000000000815260040161089890612653565b60405180910390fd5b80600401600081546108b29061237d565b9190508190555060016003600089815260200190815260200160002060003373ffffffffffffffffffffffffffffffffffffffff1673ffffffffffffffffffffffffffffffffffffffff16815260200190815260200160002060006101000a81548160ff02191690831515021790555061092b87611c26565b50505050505050565b338160008060008473ffffffffffffffffffffffffffffffffffffffff1673ffffffffffffffffffffffffffffffffffffffff1681526020019081526020016000206040518060c0016040529081600082015481526020016001820160009054906101000a900473ffffffffffffffffffffffffffffffffffffffff1673ffffffffffffffffffffffffffffffffffffffff1673ffffffffffffffffffffffffffffffffffffffff16815260200160028201548152602001600382015481526020016004820160009054906101000a900460ff1615151515815260200160058201548152505090506000801b8160a0015103610a65576040517f08c379a0000000000000000000000000000000000000000000000000000000008152600401610a5c90612411565b60405180910390fd5b8060800151610aa9576040517f08c379a0000000000000000000000000000000000000000000000000000000008152600401610aa09061247d565b60405180910390fd5b600015156003600084815260200190815260200160002060008573ffffffffffffffffffffffffffffffffffffffff1673ffffffffffffffffffffffffffffffffffffffff16815260200190815260200160002060009054906101000a900460ff16151514610b4d576040517f08c379a0000000000000000000000000000000000000000000000000000000008152600401610b44906124e9565b60405180910390fd5b836000801b600160008381526020019081526020016000206000015403610ba9576040517f08c379a0000000000000000000000000000000000000000000000000000000008152600401610ba090612555565b60405180910390fd5b84610bb381611c00565b610bf2576040517f08c379a0000000000000000000000000000000000000000000000000000000008152600401610be9906125c1565b60405180910390fd5b60006001600088815260200190815260200160002090503373ffffffffffffffffffffffffffffffffffffffff168160050160009054906101000a900473ffffffffffffffffffffffffffffffffffffffff1673ffffffffffffffffffffffffffffffffffffffff1603610c9b576040517f08c379a0000000000000000000000000000000000000000000000000000000008152600401610c92906126e5565b60405180910390fd5b8060030160008154610cac9061237d565b9190508190555060016003600089815260200190815260200160002060003373ffffffffffffffffffffffffffffffffffffffff1673ffffffffffffffffffffffffffffffffffffffff16815260200190815260200160002060006101000a81548160ff021916908315150217905550610d2587611c26565b50505050505050565b336000801b6000808373ffffffffffffffffffffffffffffffffffffffff1673ffffffffffffffffffffffffffffffffffffffff1681526020019081526020016000206005015403610db5576040517f08c379a0000000000000000000000000000000000000000000000000000000008152600401610dac90612411565b60405180910390fd5b826000801b600160008381526020019081526020016000206000015403610e11576040517f08c379a0000000000000000000000000000000000000000000000000000000008152600401610e0890612555565b60405180910390fd5b83610e1b81611c00565b15610e5b576040517f08c379a0000000000000000000000000000000000000000000000000000000008152600401610e5290612751565b60405180910390fd5b60405180606001604052808681526020013373ffffffffffffffffffffffffffffffffffffffff16815260200185815250600260008781526020019081526020016000206000820151816000015560208201518160010160006101000a81548173ffffffffffffffffffffffffffffffffffffffff021916908373ffffffffffffffffffffffffffffffffffffffff160217905550604082015181600201559050506000803373ffffffffffffffffffffffffffffffffffffffff1673ffffffffffffffffffffffffffffffffffffffff16815260200190815260200160002060030160008154610f4b9061237d565b919050819055505050505050565b6000816000801b6000808373ffffffffffffffffffffffffffffffffffffffff1673ffffffffffffffffffffffffffffffffffffffff1681526020019081526020016000206005015403610fe2576040517f08c379a0000000000000000000000000000000000000000000000000000000008152600401610fd990612411565b60405180910390fd5b6000808473ffffffffffffffffffffffffffffffffffffffff1673ffffffffffffffffffffffffffffffffffffffff16815260200190815260200160002060020154915050919050565b7f000000000000000000000000000000000000000000000000000000000000000073ffffffffffffffffffffffffffffffffffffffff163373ffffffffffffffffffffffffffffffffffffffff16146110ba576040517f08c379a00000000000000000000000000000000000000000000000000000000081526004016110b1906122c2565b60405180910390fd5b816000801b6000808373ffffffffffffffffffffffffffffffffffffffff1673ffffffffffffffffffffffffffffffffffffffff1681526020019081526020016000206005015403611141576040517f08c379a000000000000000000000000000000000000000000000000000000000815260040161113890612411565b60405180910390fd5b816000808573ffffffffffffffffffffffffffffffffffffffff1673ffffffffffffffffffffffffffffffffffffffff16815260200190815260200160002060040160006101000a81548160ff021916908315150217905550505050565b6111a7611df9565b816000801b6000808373ffffffffffffffffffffffffffffffffffffffff1673ffffffffffffffffffffffffffffffffffffffff168152602001908152602001600020600501540361122e576040517f08c379a000000000000000000000000000000000000000000000000000000000815260040161122590612411565b60405180910390fd5b6000808473ffffffffffffffffffffffffffffffffffffffff1673ffffffffffffffffffffffffffffffffffffffff1681526020019081526020016000206040518060c0016040529081600082015481526020016001820160009054906101000a900473ffffffffffffffffffffffffffffffffffffffff1673ffffffffffffffffffffffffffffffffffffffff1673ffffffffffffffffffffffffffffffffffffffff16815260200160028201548152602001600382015481526020016004820160009054906101000a900460ff16151515158152602001600582015481525050915050919050565b7f000000000000000000000000000000000000000000000000000000000000000073ffffffffffffffffffffffffffffffffffffffff163373ffffffffffffffffffffffffffffffffffffffff16146113a6576040517f08c379a000000000000000000000000000000000000000000000000000000000815260040161139d906122c2565b60405180910390fd5b806000801b6000808373ffffffffffffffffffffffffffffffffffffffff1673ffffffffffffffffffffffffffffffffffffffff168152602001908152602001600020600501540361142d576040517f08c379a000000000000000000000000000000000000000000000000000000000815260040161142490612411565b60405180910390fd5b6000808373ffffffffffffffffffffffffffffffffffffffff1673ffffffffffffffffffffffffffffffffffffffff1681526020019081526020016000206000808201600090556001820160006101000a81549073ffffffffffffffffffffffffffffffffffffffff0219169055600282016000905560038201600090556004820160006101000a81549060ff0219169055600582016000905550506004600081546114d890612771565b919050819055506000801b6000808473ffffffffffffffffffffffffffffffffffffffff1673ffffffffffffffffffffffffffffffffffffffff16815260200190815260200160002060050154146115335761153261279a565b5b5050565b8061154181611c00565b611580576040517f08c379a0000000000000000000000000000000000000000000000000000000008152600401611577906125c1565b60405180910390fd5b336000801b6000808373ffffffffffffffffffffffffffffffffffffffff1673ffffffffffffffffffffffffffffffffffffffff1681526020019081526020016000206005015403611607576040517f08c379a00000000000000000000000000000000000000000000000000000000081526004016115fe90612411565b60405180910390fd5b600260008481526020019081526020016000206000808201600090556001820160006101000a81549073ffffffffffffffffffffffffffffffffffffffff0219169055600282016000905550506000803373ffffffffffffffffffffffffffffffffffffffff1673ffffffffffffffffffffffffffffffffffffffff168152602001908152602001600020600301600081546116a290612771565b919050819055506000801b6002600085815260200190815260200160002060000154146116d2576116d161279a565b5b505050565b806000801b6000808373ffffffffffffffffffffffffffffffffffffffff1673ffffffffffffffffffffffffffffffffffffffff168152602001908152602001600020600501540361175e576040517f08c379a000000000000000000000000000000000000000000000000000000000815260040161175590612411565b60405180910390fd5b6000808373ffffffffffffffffffffffffffffffffffffffff1673ffffffffffffffffffffffffffffffffffffffff168152602001908152602001600020600201600081546117ac9061237d565b919050819055506117bc82611ca2565b5050565b6000336000801b6000808373ffffffffffffffffffffffffffffffffffffffff1673ffffffffffffffffffffffffffffffffffffffff1681526020019081526020016000206005015403611849576040517f08c379a000000000000000000000000000000000000000000000000000000000815260040161184090612411565b60405180910390fd5b836000801b6001600083815260200190815260200160002060000154036118a5576040517f08c379a000000000000000000000000000000000000000000000000000000000815260040161189c90612555565b60405180910390fd5b600060016000878152602001908152602001600020905084816001018190555060008160030181905550600081600401819055506118e286611d25565b6118eb86611c00565b156118fa576118f986611537565b5b6001935050505092915050565b816000801b600160008381526020019081526020016000206000015414611963576040517f08c379a000000000000000000000000000000000000000000000000000000000815260040161195a90612815565b60405180910390fd5b336000801b6000808373ffffffffffffffffffffffffffffffffffffffff1673ffffffffffffffffffffffffffffffffffffffff16815260200190815260200160002060050154036119ea576040517f08c379a00000000000000000000000000000000000000000000000000000000081526004016119e190612411565b60405180910390fd5b6040518060c0016040528085815260200184815260200160001515815260200160008152602001600081526020013373ffffffffffffffffffffffffffffffffffffffff1681525060016000868152602001908152602001600020600082015181600001556020820151816001015560408201518160020160006101000a81548160ff021916908315150217905550606082015181600301556080820151816004015560a08201518160050160006101000a81548173ffffffffffffffffffffffffffffffffffffffff021916908373ffffffffffffffffffffffffffffffffffffffff16021790555090505050505050565b611ae5611e4d565b816000801b600160008381526020019081526020016000206000015403611b41576040517f08c379a0000000000000000000000000000000000000000000000000000000008152600401611b3890612555565b60405180910390fd5b600160008481526020019081526020016000206040518060c001604052908160008201548152602001600182015481526020016002820160009054906101000a900460ff1615151515815260200160038201548152602001600482015481526020016005820160009054906101000a900473ffffffffffffffffffffffffffffffffffffffff1673ffffffffffffffffffffffffffffffffffffffff1673ffffffffffffffffffffffffffffffffffffffff1681525050915050919050565b60008060001b600260008481526020019081526020016000206000015414159050919050565b6000600160008381526020019081526020016000209050600a600454118015611c6c5750602160045482600301546064611c609190612835565b611c6a91906128a6565b115b611c80578060030154816004015411611c83565b60005b8160020160006101000a81548160ff0219169083151502179055505050565b60008060008373ffffffffffffffffffffffffffffffffffffffff1673ffffffffffffffffffffffffffffffffffffffff1681526020019081526020016000209050602160045482600201546064611cfa9190612835565b611d0491906128a6565b11158160040160006101000a81548160ff0219169083151502179055505050565b600060036000838152602001908152602001600020905060005b600580549050811015611df457600082600060058481548110611d6557611d646128d7565b5b9060005260206000200160009054906101000a900473ffffffffffffffffffffffffffffffffffffffff1673ffffffffffffffffffffffffffffffffffffffff1673ffffffffffffffffffffffffffffffffffffffff16815260200190815260200160002060006101000a81548160ff0219169083151502179055508080611dec9061237d565b915050611d3f565b505050565b6040518060c0016040528060008019168152602001600073ffffffffffffffffffffffffffffffffffffffff1681526020016000815260200160008152602001600015158152602001600080191681525090565b6040518060c0016040528060008019168152602001600080191681526020016000151581526020016000815260200160008152602001600073ffffffffffffffffffffffffffffffffffffffff1681525090565b600080fd5b6000819050919050565b611eb981611ea6565b8114611ec457600080fd5b50565b600081359050611ed681611eb0565b92915050565b600073ffffffffffffffffffffffffffffffffffffffff82169050919050565b6000611f0782611edc565b9050919050565b611f1781611efc565b8114611f2257600080fd5b50565b600081359050611f3481611f0e565b92915050565b600080600060608486031215611f5357611f52611ea1565b5b6000611f6186828701611ec7565b9350506020611f7286828701611f25565b9250506040611f8386828701611ec7565b9150509250925092565b600060208284031215611fa357611fa2611ea1565b5b6000611fb184828501611ec7565b91505092915050565b60008060408385031215611fd157611fd0611ea1565b5b6000611fdf85828601611ec7565b9250506020611ff085828601611ec7565b9150509250929050565b6000602082840312156120105761200f611ea1565b5b600061201e84828501611f25565b91505092915050565b6000819050919050565b61203a81612027565b82525050565b60006020820190506120556000830184612031565b92915050565b60008115159050919050565b6120708161205b565b811461207b57600080fd5b50565b60008135905061208d81612067565b92915050565b600080604083850312156120aa576120a9611ea1565b5b60006120b885828601611f25565b92505060206120c98582860161207e565b9150509250929050565b6120dc81611ea6565b82525050565b6120eb81611efc565b82525050565b6120fa81612027565b82525050565b6121098161205b565b82525050565b60c08201600082015161212560008501826120d3565b50602082015161213860208501826120e2565b50604082015161214b60408501826120f1565b50606082015161215e60608501826120f1565b5060808201516121716080850182612100565b5060a082015161218460a08501826120d3565b50505050565b600060c08201905061219f600083018461210f565b92915050565b6121ae8161205b565b82525050565b60006020820190506121c960008301846121a5565b92915050565b60c0820160008201516121e560008501826120d3565b5060208201516121f860208501826120d3565b50604082015161220b6040850182612100565b50606082015161221e60608501826120f1565b50608082015161223160808501826120f1565b5060a082015161224460a08501826120e2565b50505050565b600060c08201905061225f60008301846121cf565b92915050565b600082825260208201905092915050565b7f4f7065726174696f6e206e6f7420617574686f72697a65640000000000000000600082015250565b60006122ac601883612265565b91506122b782612276565b602082019050919050565b600060208201905081810360008301526122db8161229f565b9050919050565b7f42616e6b2077697468206164647265737320616c726561647920657869737400600082015250565b6000612318601f83612265565b9150612323826122e2565b602082019050919050565b600060208201905081810360008301526123478161230b565b9050919050565b7f4e487b7100000000000000000000000000000000000000000000000000000000600052601160045260246000fd5b600061238882612027565b91507fffffffffffffffffffffffffffffffffffffffffffffffffffffffffffffffff82036123ba576123b961234e565b5b600182019050919050565b7f496e76616c69642062616e6b0000000000000000000000000000000000000000600082015250565b60006123fb600c83612265565b9150612406826123c5565b602082019050919050565b6000602082019050818103600083015261242a816123ee565b9050919050565b7f42616e6b206973206e6f7420616c6c6f77656420746f206361737420766f7465600082015250565b6000612467602083612265565b915061247282612431565b602082019050919050565b600060208201905081810360008301526124968161245a565b9050919050565b7f42616e6b2068617320616c726561647920766f74656400000000000000000000600082015250565b60006124d3601683612265565b91506124de8261249d565b602082019050919050565b60006020820190508181036000830152612502816124c6565b9050919050565b7f496e76616c696420637573746f6d657200000000000000000000000000000000600082015250565b600061253f601083612265565b915061254a82612509565b602082019050919050565b6000602082019050818103600083015261256e81612532565b9050919050565b7f4b5943207265717565737420646f65736e277420657869737400000000000000600082015250565b60006125ab601983612265565b91506125b682612575565b602082019050919050565b600060208201905081810360008301526125da8161259e565b9050919050565b7f43616e6e6f7420757020766f74652062616e6b2773206f776e20637573746f6d60008201527f6572000000000000000000000000000000000000000000000000000000000000602082015250565b600061263d602283612265565b9150612648826125e1565b604082019050919050565b6000602082019050818103600083015261266c81612630565b9050919050565b7f43616e6e6f7420646f776e20766f74652062616e6b2773206f776e206375737460008201527f6f6d657200000000000000000000000000000000000000000000000000000000602082015250565b60006126cf602483612265565b91506126da82612673565b604082019050919050565b600060208201905081810360008301526126fe816126c2565b9050919050565b7f4b594320616c7265616479206578697374000000000000000000000000000000600082015250565b600061273b601183612265565b915061274682612705565b602082019050919050565b6000602082019050818103600083015261276a8161272e565b9050919050565b600061277c82612027565b91506000820361278f5761278e61234e565b5b600182039050919050565b7f4e487b7100000000000000000000000000000000000000000000000000000000600052600160045260246000fd5b7f437573746f6d657220616c726561647920657869747300000000000000000000600082015250565b60006127ff601683612265565b915061280a826127c9565b602082019050919050565b6000602082019050818103600083015261282e816127f2565b9050919050565b600061284082612027565b915061284b83612027565b925082820261285981612027565b915082820484148315176128705761286f61234e565b5b5092915050565b7f4e487b7100000000000000000000000000000000000000000000000000000000600052601260045260246000fd5b60006128b182612027565b91506128bc83612027565b9250826128cc576128cb612877565b5b828204905092915050565b7f4e487b7100000000000000000000000000000000000000000000000000000000600052603260045260246000fdfea26469706673582212209cd262abac3dcfbe14ae7dd886d45955e029d3335600e1efacc40983a715d03264736f6c63430008120033",
  "linkReferences": {},
  "deployedLinkReferences": {}
}